:100000000C9446000C9465000C9465000C946500FB
:100010000C9465000C9465000C9465000C946500CC
:100020000C9465000C9465000C9465000C946500BC
:100030000C9465000C94B4000C9465000C9465005D
:100040000C9465000C9465000C9465000C9465009C
:100050000C9465000C9465000C9465000C9465008C
:100060000C9465000C9465000C9465000C9465007C
:100070000C9465000C9465000C9465000C9465006C
:100080000C9465000C9465000C94650011241FBE4F
:10009000CFEFD0E4DEBFCDBF11E0A0E0B1E0E0E5FE
:1000A000F4E000E00BBF02C007900D92A231B1074F
:1000B000D9F721E0A2E1B1E001C01D92A232B2075E
:1000C000E1F70E94D2010C9426020C940000CF9319
:1000D000C82F8A3019F48DE00E9467008091C0001B
:1000E00085FFFCCFC093C60080E090E0CF910895DB
:1000F00060930E0170930F01809310019093110192
:100100006093120170931301809314019093150171
:1001100008958BE0809381008DE790E090938900B3
:100120008093880082E080936F0010928500109287
:10013000840080910E0190910F01A0911001B09167
:1001400011018093120190931301A0931401B093B5
:1001500015018FB780688FBF0895109281000895B0
:1001600081E08093160108951F920F920FB60F92AF
:1001700011240BB60F922F933F934F935F936F937E
:100180007F938F939F93AF93BF93EF93FF93809150
:10019000120190911301A0911401B09115010197E2
:1001A000A109B1098093120190931301A093140146
:1001B000B0931501892B8A2B8B2B91F40E94B000F0
:1001C00080910E0190910F01A0911001B091110149
:1001D0008093120190931301A0931401B093150121
:1001E000FF91EF91BF91AF919F918F917F916F910F
:1001F0005F914F913F912F910F900BBE0F900FBECB
:100200000F901F90189580911D0190911E018130D3
:10021000910559F018F0029779F015C082E090E04E
:1002200090931E0180931D0112C082E090E0909394
:100230001E0180931D010BC081E090E090931E0190
:1002400080931D0104C010921E0110921D01809127
:100250001D0190911E018130910519F0029721F046
:10026000089510922101089588E080932101089556
:1002700080911A0190911B018130910571F030F04D
:100280008230910589F00397B1F01CC081E090E0C5
:1002900090931B0180931A0119C082E090E0909323
:1002A0001B0180931A0112C083E090E090931B0120
:1002B00080931A010BC081E090E090931B01809322
:1002C0001A0104C010921B0110921A0180911A01A8
:1002D00090911B018230910549F08330910551F0D6
:1002E000019759F481E080931901089582E0809389
:1002F0001901089584E080931901089580911F01E8
:10030000909120018130910559F018F0029789F001
:1003100012C081E090E09093200180931F010FC0F4
:10032000029902C082E090E09093200180931F0127
:1003300006C0029900C01092200110921F01809106
:100340001F01909120018130910519F0029721F051
:10035000089510921C01089580911C018095807170
:1003600080931C0108958091170190911801892BA9
:1003700029F4109218011092170104C0109218016C
:10038000109217018091170190911801892B49F45F
:100390009091210180911901892B90911C01892B49
:1003A00085B9089511B88FEF82B984B915B862E0A4
:1003B00070E080E090E00E9478000E948900109236
:1003C0001E0110921D0110921B0110921A01109231
:1003D000200110921F011092180110921701109223
:1003E000210110921901812C912C5401C12CD12C86
:1003F000760188EEC81683E0D806E104F10428F0FF
:100400000E940301C12CD12C76018CE2881681E078
:100410009806A104B10428F00E943801812C912C87
:1004200054010E947E010E94B3018091160188232D
:10043000E1F31092160182E0C80ED11CE11CF11C00
:1004400082E0880E911CA11CB11CD3CFF894FFCF81
:100450000000000200000000670000000000010032
:0204600000009A
:00000001FF
