:100000000C9446000C9465000C9465000C946500FB
:100010000C9465000C9465000C9465000C946500CC
:100020000C9465000C9465000C9465000C946500BC
:100030000C9465000C94B4000C9465000C9465005D
:100040000C9465000C9465000C9465000C9465009C
:100050000C9465000C9465000C9465000C9465008C
:100060000C9465000C9465000C9465000C9465007C
:100070000C9465000C9465000C9465000C9465006C
:100080000C9465000C9465000C94650011241FBE4F
:10009000CFEFD0E4DEBFCDBF11E0A0E0B1E0E6E8F5
:1000A000F5E000E00BBF02C007900D92A231B1074E
:1000B000D9F721E0A2E1B1E001C01D92A532B2075B
:1000C000E1F70E944D020C94C1020C940000CF9302
:1000D000C82F8A3019F48DE00E9467008091C0001B
:1000E00085FFFCCFC093C60080E090E0CF910895DB
:1000F00060930E0170930F01809310019093110192
:100100006093120170931301809314019093150171
:1001100008958BE0809381008DE790E090938900B3
:100120008093880082E080936F0010928500109287
:10013000840080910E0190910F01A0911001B09167
:1001400011018093120190931301A0931401B093B5
:1001500015018FB780688FBF0895109281000895B0
:1001600081E08093160108951F920F920FB60F92AF
:1001700011240BB60F922F933F934F935F936F937E
:100180007F938F939F93AF93BF93EF93FF93809150
:10019000120190911301A0911401B09115010197E2
:1001A000A109B1098093120190931301A093140146
:1001B000B0931501892B8A2B8B2B91F40E94B000F0
:1001C00080910E0190910F01A0911001B091110149
:1001D0008093120190931301A0931401B093150121
:1001E000FF91EF91BF91AF919F918F917F916F910F
:1001F0005F914F913F912F910F900BBE0F900FBECB
:100200000F901F90189580912001909121018130CD
:10021000910559F018F0029779F015C082E090E04E
:10022000909321018093200112C082E090E090938E
:100230002101809320010BC081E090E09093210187
:100240008093200104C0109221011092200180911E
:100250002001909121018130910519F0029721F040
:10026000089510922401089588E080932401089550
:1002700080911B0190911C018130910571F030F04B
:100280008230910589F00397B1F01CC081E090E0C5
:1002900090931C0180931B0119C082E090E0909321
:1002A0001C0180931B0112C083E090E090931C011D
:1002B00080931B010BC081E090E090931C01809320
:1002C0001B0104C010921C0110921B0180911B01A4
:1002D00090911C018230910549F08330910551F0D5
:1002E000019759F481E080931A01089582E0809388
:1002F0001A01089584E080931A01089580912201E3
:10030000909123018130910559F018F0029789F0FE
:1003100012C081E090E090932301809322010FC0EE
:10032000029902C082E090E0909323018093220121
:1003300006C0029900C01092230110922201809100
:100340002201909123018130910519F0029721F04B
:10035000089510921F01089580911F01809580716A
:1003600080931F01089580911D0190911E0182309C
:10037000910581F128F4009749F0019771F052C07E
:100380008330910599F10497E1F14CC081E090E050
:1003900090931E0180931D0149C0009909C0019BE3
:1003A00007C082E090E090931E0180931D013EC043
:1003B000009B09C0019907C083E090E090931E0163
:1003C00080931D0133C081E090E090931E018093E3
:1003D0001D012CC0009903C084E090E002C081E0C0
:1003E00090E090931E0180931D0120C0019903C0ED
:1003F00084E090E002C081E090E090931E01809341
:100400001D01009B05C0019906C084E090E005C075
:1004100084E090E002C081E090E090931E01809320
:100420001D0104C010921E0110921D0180911D013A
:1004300090911E018230910519F0039739F00895CB
:10044000809119018F5F809319010895809119019E
:10045000823008F08150809319010895809117012E
:1004600090911801892B29F410921801109217010C
:1004700004C01092180110921701809117019091F9
:100480001801892B49F49091240180911A01892B3C
:1004900090911F01892B85B9089511B88FEF82B90A
:1004A00084B915B861E070E080E090E00E947800C7
:1004B0000E948900109221011092200110921C01CB
:1004C00010921B01109223011092220110921E0122
:1004D00010921D0110921801109217011092240120
:1004E00010921A0110921F0182E080931901412C91
:1004F000512C3201812C912C5401C12CD12C76012C
:1005000088EEC81683E0D806E104F10428F00E94C2
:100510000301C12CD12C76018CE2881681E098066B
:10052000A104B10428F00E943801812C912C5401BF
:100530008091190190E0A0E0B0E0481659066A06E3
:100540007B0628F00E947E01412C512C32010E9432
:10055000B3010E942E02809116018823E1F31092CC
:1005600016018FEFC81AD80AE80AF80A8FEF881A1E
:10057000980AA80AB80A8FEF481A580A680A780A2F
:06058000BFCFF894FFCF8D
:1005860000000002000000006700000000000100FB
:02059600000063
:00000001FF
