:100000000C9446000C9465000C9465000C946500FB
:100010000C9465000C9465000C9465000C946500CC
:100020000C9465000C9465000C9465000C946500BC
:100030000C9465000C94B4000C9465000C9465005D
:100040000C9465000C9465000C9465000C9465009C
:100050000C9465000C9465000C9465000C9465008C
:100060000C9465000C9465000C9465000C9465007C
:100070000C9465000C9465000C9465000C9465006C
:100080000C9465000C9465000C94650011241FBE4F
:10009000CFEFD0E4DEBFCDBF11E0A0E0B1E0EEE8ED
:1000A000F3E000E00BBF02C007900D92A231B10750
:1000B000D9F721E0A2E1B1E001C01D92AF31B20752
:1000C000E1F70E94A1010C94C5010C940000CF93AC
:1000D000C82F8A3019F48DE00E9467008091C0001B
:1000E00085FFFCCFC093C60080E090E0CF910895DB
:1000F00060930E0170930F01809310019093110192
:100100006093120170931301809314019093150171
:1001100008958BE0809381008DE790E090938900B3
:100120008093880082E080936F0010928500109287
:10013000840080910E0190910F01A0911001B09167
:1001400011018093120190931301A0931401B093B5
:1001500015018FB780688FBF0895109281000895B0
:1001600081E08093160108951F920F920FB60F92AF
:1001700011240BB60F922F933F934F935F936F937E
:100180007F938F939F93AF93BF93EF93FF93809150
:10019000120190911301A0911401B09115010197E2
:1001A000A109B1098093120190931301A093140146
:1001B000B0931501892B8A2B8B2B91F40E94B000F0
:1001C00080910E0190910F01A0911001B091110149
:1001D0008093120190931301A0931401B093150121
:1001E000FF91EF91BF91AF919F918F917F916F910F
:1001F0005F914F913F912F910F900BBE0F900FBECB
:100200000F901F90189580911C0190911D018130D5
:10021000910559F018F0029779F015C082E090E04E
:1002200090931D0180931C0112C082E090E0909396
:100230001D0180931C010BC081E090E090931D0193
:1002400080931C0104C010921D0110921C0180912A
:100250001C0190911D018130910519F0029721F048
:10026000089510921E01089588E080931E0108955C
:1002700080911A0190911B018130910571F030F04D
:100280008230910589F00397B1F01CC081E090E0C5
:1002900090931B0180931A0119C082E090E0909323
:1002A0001B0180931A0112C083E090E090931B0120
:1002B00080931A010BC081E090E090931B01809322
:1002C0001A0104C010921B0110921A0180911A01A8
:1002D00090911B018130910539F0B0F08230910589
:1002E00039F0039749F00CC081E08093190108951B
:1002F00082E080931901089584E0809319010895A4
:1003000010921B0110921A0108958091170190918B
:100310001801892B29F4109218011092170104C0BA
:1003200010921801109217018091170190911801F5
:10033000892B31F490911E0180911901892B85B987
:1003400008958FEF84B915B868EE73E080E090E00F
:100350000E9478000E94890010921D0110921C01D9
:1003600010921B0110921A0110921E011092190195
:100370000E9403010E9438010E94850180911601AC
:0E0380008823E1F310921601F3CFF894FFCF1B
:10038E0000000002000000006700000000000100F5
:02039E0000005D
:00000001FF
